{
  "address": "0xa513E6E4b8f2a923D98304ec87F64353C4D5C853",
  "abi": [
    {
      "anonymous": false,
      "inputs": [
        {
          "indexed": true,
          "internalType": "address",
          "name": "previousOwner",
          "type": "address"
        },
        {
          "indexed": true,
          "internalType": "address",
          "name": "newOwner",
          "type": "address"
        }
      ],
      "name": "OwnershipTransferred",
      "type": "event"
    },
    {
      "anonymous": false,
      "inputs": [
        {
          "indexed": false,
          "internalType": "uint256",
          "name": "newValue",
          "type": "uint256"
        }
      ],
      "name": "valueChanged",
      "type": "event"
    },
    {
      "inputs": [],
      "name": "owner",
      "outputs": [
        {
          "internalType": "address",
          "name": "",
          "type": "address"
        }
      ],
      "stateMutability": "view",
      "type": "function"
    },
    {
      "inputs": [],
      "name": "renounceOwnership",
      "outputs": [],
      "stateMutability": "nonpayable",
      "type": "function"
    },
    {
      "inputs": [],
      "name": "retrive",
      "outputs": [
        {
          "internalType": "uint256",
          "name": "",
          "type": "uint256"
        }
      ],
      "stateMutability": "view",
      "type": "function"
    },
    {
      "inputs": [
        {
          "internalType": "uint256",
          "name": "newValue",
          "type": "uint256"
        }
      ],
      "name": "store",
      "outputs": [],
      "stateMutability": "nonpayable",
      "type": "function"
    },
    {
      "inputs": [
        {
          "internalType": "address",
          "name": "newOwner",
          "type": "address"
        }
      ],
      "name": "transferOwnership",
      "outputs": [],
      "stateMutability": "nonpayable",
      "type": "function"
    }
  ],
  "transactionHash": "0xf592386f27c7c672f889291e824b89f84a339a7266ccf3d8c90c8c39cbd5f296",
  "args": [],
  "numDeployments": 1,
  "solcInputHash": "ce7f321f3a593d99f27996b140b11993",
  "bytecode": "0x608060405234801561001057600080fd5b5061002d61002261003260201b60201c565b61003a60201b60201c565b6100fe565b600033905090565b60008060009054906101000a900473ffffffffffffffffffffffffffffffffffffffff169050816000806101000a81548173ffffffffffffffffffffffffffffffffffffffff021916908373ffffffffffffffffffffffffffffffffffffffff1602179055508173ffffffffffffffffffffffffffffffffffffffff168173ffffffffffffffffffffffffffffffffffffffff167f8be0079c531659141344cd1fd0a4f28419497f9722a3daafe3b4186f6b6457e060405160405180910390a35050565b6105c48061010d6000396000f3fe608060405234801561001057600080fd5b50600436106100575760003560e01c80636057361d1461005c578063715018a6146100785780638da5cb5b14610082578063a6b7fc5b146100a0578063f2fde38b146100be575b600080fd5b61007660048036038101906100719190610373565b6100da565b005b610080610123565b005b61008a610137565b60405161009791906103e1565b60405180910390f35b6100a8610160565b6040516100b5919061040b565b60405180910390f35b6100d860048036038101906100d39190610452565b61016a565b005b6100e26101ee565b806001819055507fc0dd44d3f117c96295a84b2eb7b3f6abe929928d111b030bfb3568f5efa0ff1f81604051610118919061040b565b60405180910390a150565b61012b6101ee565b610135600061026c565b565b60008060009054906101000a900473ffffffffffffffffffffffffffffffffffffffff16905090565b6000600154905090565b6101726101ee565b600073ffffffffffffffffffffffffffffffffffffffff168173ffffffffffffffffffffffffffffffffffffffff1614156101e2576040517f08c379a00000000000000000000000000000000000000000000000000000000081526004016101d990610502565b60405180910390fd5b6101eb8161026c565b50565b6101f6610330565b73ffffffffffffffffffffffffffffffffffffffff16610214610137565b73ffffffffffffffffffffffffffffffffffffffff161461026a576040517f08c379a00000000000000000000000000000000000000000000000000000000081526004016102619061056e565b60405180910390fd5b565b60008060009054906101000a900473ffffffffffffffffffffffffffffffffffffffff169050816000806101000a81548173ffffffffffffffffffffffffffffffffffffffff021916908373ffffffffffffffffffffffffffffffffffffffff1602179055508173ffffffffffffffffffffffffffffffffffffffff168173ffffffffffffffffffffffffffffffffffffffff167f8be0079c531659141344cd1fd0a4f28419497f9722a3daafe3b4186f6b6457e060405160405180910390a35050565b600033905090565b600080fd5b6000819050919050565b6103508161033d565b811461035b57600080fd5b50565b60008135905061036d81610347565b92915050565b60006020828403121561038957610388610338565b5b60006103978482850161035e565b91505092915050565b600073ffffffffffffffffffffffffffffffffffffffff82169050919050565b60006103cb826103a0565b9050919050565b6103db816103c0565b82525050565b60006020820190506103f660008301846103d2565b92915050565b6104058161033d565b82525050565b600060208201905061042060008301846103fc565b92915050565b61042f816103c0565b811461043a57600080fd5b50565b60008135905061044c81610426565b92915050565b60006020828403121561046857610467610338565b5b60006104768482850161043d565b91505092915050565b600082825260208201905092915050565b7f4f776e61626c653a206e6577206f776e657220697320746865207a65726f206160008201527f6464726573730000000000000000000000000000000000000000000000000000602082015250565b60006104ec60268361047f565b91506104f782610490565b604082019050919050565b6000602082019050818103600083015261051b816104df565b9050919050565b7f4f776e61626c653a2063616c6c6572206973206e6f7420746865206f776e6572600082015250565b600061055860208361047f565b915061056382610522565b602082019050919050565b600060208201905081810360008301526105878161054b565b905091905056fea2646970667358221220c0b7a7a1247445cc6804944bec8aee45ae9b65591430b07f74ff6f3ed21424d564736f6c63430008080033",
  "devdoc": {
    "kind": "dev",
    "methods": {
      "owner()": {
        "details": "Returns the address of the current owner."
      },
      "renounceOwnership()": {
        "details": "Leaves the contract without owner. It will not be possible to call `onlyOwner` functions anymore. Can only be called by the current owner. NOTE: Renouncing ownership will leave the contract without an owner, thereby removing any functionality that is only available to the owner."
      },
      "transferOwnership(address)": {
        "details": "Transfers ownership of the contract to a new account (`newOwner`). Can only be called by the current owner."
      }
    },
    "version": 1
  },
  "userdoc": {
    "kind": "user",
    "methods": {},
    "version": 1
  },
  "storageLayout": {
    "storage": [
      {
        "astId": 400,
        "contract": "contracts/Box.sol:Box",
        "label": "_owner",
        "offset": 0,
        "slot": "0",
        "type": "t_address"
      },
      {
        "astId": 9777,
        "contract": "contracts/Box.sol:Box",
        "label": "s_vlaue",
        "offset": 0,
        "slot": "1",
        "type": "t_uint256"
      }
    ],
    "types": {
      "t_address": {
        "encoding": "inplace",
        "label": "address",
        "numberOfBytes": "20"
      },
      "t_uint256": {
        "encoding": "inplace",
        "label": "uint256",
        "numberOfBytes": "32"
      }
    }
  }
}